{
  "contractName": "orbit",
  "abi": [
    {
      "inputs": [
        {
          "internalType": "address payable",
          "name": "wagmi",
          "type": "address"
        }
      ],
      "stateMutability": "nonpayable",
      "type": "constructor"
    },
    {
      "inputs": [
        {
          "internalType": "address",
          "name": "",
          "type": "address"
        }
      ],
      "name": "hired",
      "outputs": [
        {
          "internalType": "enum orbit.listing",
          "name": "",
          "type": "uint8"
        }
      ],
      "stateMutability": "view",
      "type": "function",
      "constant": true
    },
    {
      "inputs": [
        {
          "internalType": "address",
          "name": "",
          "type": "address"
        }
      ],
      "name": "newbie",
      "outputs": [
        {
          "internalType": "enum orbit.Status",
          "name": "",
          "type": "uint8"
        }
      ],
      "stateMutability": "view",
      "type": "function",
      "constant": true
    },
    {
      "inputs": [
        {
          "internalType": "address",
          "name": "",
          "type": "address"
        }
      ],
      "name": "recruitee",
      "outputs": [
        {
          "internalType": "uint256",
          "name": "",
          "type": "uint256"
        }
      ],
      "stateMutability": "view",
      "type": "function",
      "constant": true
    },
    {
      "inputs": [
        {
          "internalType": "uint256",
          "name": "",
          "type": "uint256"
        }
      ],
      "name": "recruiters",
      "outputs": [
        {
          "internalType": "address payable",
          "name": "",
          "type": "address"
        }
      ],
      "stateMutability": "view",
      "type": "function",
      "constant": true
    },
    {
      "inputs": [],
      "name": "recruitersFee",
      "outputs": [
        {
          "internalType": "uint256",
          "name": "",
          "type": "uint256"
        }
      ],
      "stateMutability": "view",
      "type": "function",
      "constant": true
    },
    {
      "inputs": [
        {
          "internalType": "address",
          "name": "",
          "type": "address"
        }
      ],
      "name": "verificationSat",
      "outputs": [
        {
          "internalType": "enum orbit.Status",
          "name": "",
          "type": "uint8"
        }
      ],
      "stateMutability": "view",
      "type": "function",
      "constant": true
    },
    {
      "inputs": [
        {
          "internalType": "address",
          "name": "",
          "type": "address"
        }
      ],
      "name": "workers",
      "outputs": [
        {
          "internalType": "enum orbit.listing",
          "name": "",
          "type": "uint8"
        }
      ],
      "stateMutability": "view",
      "type": "function",
      "constant": true
    },
    {
      "inputs": [
        {
          "internalType": "uint256",
          "name": "_fee",
          "type": "uint256"
        }
      ],
      "name": "initFee",
      "outputs": [],
      "stateMutability": "nonpayable",
      "type": "function"
    },
    {
      "inputs": [
        {
          "internalType": "uint256",
          "name": "gateFee",
          "type": "uint256"
        },
        {
          "internalType": "address payable",
          "name": "recruitersId",
          "type": "address"
        }
      ],
      "name": "beRecruiter",
      "outputs": [],
      "stateMutability": "payable",
      "type": "function",
      "payable": true
    },
    {
      "inputs": [
        {
          "internalType": "uint256",
          "name": "grade",
          "type": "uint256"
        },
        {
          "internalType": "address payable",
          "name": "recruiteeId",
          "type": "address"
        },
        {
          "internalType": "uint256",
          "name": "charge",
          "type": "uint256"
        }
      ],
      "name": "beRecruitee",
      "outputs": [],
      "stateMutability": "nonpayable",
      "type": "function"
    },
    {
      "inputs": [
        {
          "internalType": "uint256",
          "name": "charges",
          "type": "uint256"
        },
        {
          "internalType": "address payable",
          "name": "client",
          "type": "address"
        }
      ],
      "name": "hire",
      "outputs": [],
      "stateMutability": "payable",
      "type": "function",
      "payable": true
    },
    {
      "inputs": [
        {
          "internalType": "address",
          "name": "yourId",
          "type": "address"
        }
      ],
      "name": "work",
      "outputs": [],
      "stateMutability": "nonpayable",
      "type": "function"
    },
    {
      "inputs": [
        {
          "internalType": "address payable",
          "name": "worker",
          "type": "address"
        },
        {
          "internalType": "uint256",
          "name": "salary",
          "type": "uint256"
        }
      ],
      "name": "getPaid",
      "outputs": [],
      "stateMutability": "payable",
      "type": "function",
      "payable": true
    }
  ],
  "bytecode": "0x60806040523480156200001157600080fd5b506040516200137d3803806200137d8339818101604052810190620000379190620000e8565b806000806101000a81548173ffffffffffffffffffffffffffffffffffffffff021916908373ffffffffffffffffffffffffffffffffffffffff160217905550506200011a565b600080fd5b600073ffffffffffffffffffffffffffffffffffffffff82169050919050565b6000620000b08262000083565b9050919050565b620000c281620000a3565b8114620000ce57600080fd5b50565b600081519050620000e281620000b7565b92915050565b6000602082840312156200010157620001006200007e565b5b60006200011184828501620000d1565b91505092915050565b611253806200012a6000396000f3fe6080604052600436106100c25760003560e01c80634048a2571161007f57806382c66d8b1161005957806382c66d8b1461025c578063a6436bb314610299578063b0367c94146102d6578063cec6fba2146102f2576100c2565b80634048a257146101c65780636e7573e6146102035780637903db3414610240576100c2565b806308b9cbf8146100c757806311bc9101146100f05780631c03f26e1461012d57806324f31f1e1461015857806334ed56051461017457806336df7ea51461019d575b600080fd5b3480156100d357600080fd5b506100ee60048036038101906100e99190610daa565b61032f565b005b3480156100fc57600080fd5b5061011760048036038101906101129190610daa565b610391565b6040516101249190610e18565b60405180910390f35b34801561013957600080fd5b506101426103d0565b60405161014f9190610e42565b60405180910390f35b610172600480360381019061016d9190610e89565b6103d6565b005b34801561018057600080fd5b5061019b60048036038101906101969190610ec9565b61060e565b005b3480156101a957600080fd5b506101c460048036038101906101bf9190610f5a565b61089f565b005b3480156101d257600080fd5b506101ed60048036038101906101e89190610f5a565b6109bf565b6040516101fa9190610ffe565b60405180910390f35b34801561020f57600080fd5b5061022a60048036038101906102259190610f5a565b6109df565b6040516102379190610e42565b60405180910390f35b61025a60048036038101906102559190610e89565b6109f7565b005b34801561026857600080fd5b50610283600480360381019061027e9190610f5a565b610b0d565b6040516102909190610ffe565b60405180910390f35b3480156102a557600080fd5b506102c060048036038101906102bb9190610f5a565b610b2d565b6040516102cd9190611061565b60405180910390f35b6102f060048036038101906102eb919061107c565b610b4d565b005b3480156102fe57600080fd5b5061031960048036038101906103149190610f5a565b610d4f565b6040516103269190611061565b60405180910390f35b60008054906101000a900473ffffffffffffffffffffffffffffffffffffffff1673ffffffffffffffffffffffffffffffffffffffff163373ffffffffffffffffffffffffffffffffffffffff161461038757600080fd5b8060018190555050565b600281815481106103a157600080fd5b906000526020600020016000915054906101000a900473ffffffffffffffffffffffffffffffffffffffff1681565b60015481565b60005b60028054905081101561046f57600281815481106103fa576103f96110bc565b5b9060005260206000200160009054906101000a900473ffffffffffffffffffffffffffffffffffffffff1673ffffffffffffffffffffffffffffffffffffffff163373ffffffffffffffffffffffffffffffffffffffff161461045c57600080fd5b80806104679061111a565b9150506103d9565b506000600181111561048457610483610f87565b5b600560008373ffffffffffffffffffffffffffffffffffffffff1673ffffffffffffffffffffffffffffffffffffffff16815260200190815260200160002060009054906101000a900460ff1660018111156104e3576104e2610f87565b5b146104ed57600080fd5b81600360008373ffffffffffffffffffffffffffffffffffffffff1673ffffffffffffffffffffffffffffffffffffffff168152602001908152602001600020541461053857600080fd5b34915060008054906101000a900473ffffffffffffffffffffffffffffffffffffffff1673ffffffffffffffffffffffffffffffffffffffff166108fc839081150290604051600060405180830381858888f193505050501580156105a1573d6000803e3d6000fd5b506001600660008373ffffffffffffffffffffffffffffffffffffffff1673ffffffffffffffffffffffffffffffffffffffff16815260200190815260200160002060006101000a81548160ff0219169083600281111561060557610604610f87565b5b02179055505050565b3373ffffffffffffffffffffffffffffffffffffffff168273ffffffffffffffffffffffffffffffffffffffff161461064657600080fd5b600a831080156106565750600683115b15610786576000600560008473ffffffffffffffffffffffffffffffffffffffff1673ffffffffffffffffffffffffffffffffffffffff16815260200190815260200160002060006101000a81548160ff021916908360018111156106be576106bd610f87565b5b0217905550600060018111156106d7576106d6610f87565b5b600560008473ffffffffffffffffffffffffffffffffffffffff1673ffffffffffffffffffffffffffffffffffffffff16815260200190815260200160002060009054906101000a900460ff16600181111561073657610735610f87565b5b14156107815780600360008473ffffffffffffffffffffffffffffffffffffffff1673ffffffffffffffffffffffffffffffffffffffff168152602001908152602001600020819055505b61089a565b6001600560008473ffffffffffffffffffffffffffffffffffffffff1673ffffffffffffffffffffffffffffffffffffffff16815260200190815260200160002060006101000a81548160ff021916908360018111156107e9576107e8610f87565b5b02179055506001600460008473ffffffffffffffffffffffffffffffffffffffff1673ffffffffffffffffffffffffffffffffffffffff16815260200190815260200160002060006101000a81548160ff0219169083600181111561085157610850610f87565b5b0217905550600360008373ffffffffffffffffffffffffffffffffffffffff1673ffffffffffffffffffffffffffffffffffffffff168152602001908152602001600020600090555b505050565b600160028111156108b3576108b2610f87565b5b600660008373ffffffffffffffffffffffffffffffffffffffff1673ffffffffffffffffffffffffffffffffffffffff16815260200190815260200160002060009054906101000a900460ff16600281111561091257610911610f87565b5b1461091c57600080fd5b8073ffffffffffffffffffffffffffffffffffffffff163373ffffffffffffffffffffffffffffffffffffffff161461095457600080fd5b6002600760008373ffffffffffffffffffffffffffffffffffffffff1673ffffffffffffffffffffffffffffffffffffffff16815260200190815260200160002060006101000a81548160ff021916908360028111156109b7576109b6610f87565b5b021790555050565b60076020528060005260406000206000915054906101000a900460ff1681565b60036020528060005260406000206000915090505481565b34915060015482148015610a3657503373ffffffffffffffffffffffffffffffffffffffff168173ffffffffffffffffffffffffffffffffffffffff16145b610a3f57600080fd5b6002819080600181540180825580915050600190039060005260206000200160009091909190916101000a81548173ffffffffffffffffffffffffffffffffffffffff021916908373ffffffffffffffffffffffffffffffffffffffff16021790555060008054906101000a900473ffffffffffffffffffffffffffffffffffffffff1673ffffffffffffffffffffffffffffffffffffffff166108fc839081150290604051600060405180830381858888f19350505050158015610b08573d6000803e3d6000fd5b505050565b60066020528060005260406000206000915054906101000a900460ff1681565b60056020528060005260406000206000915054906101000a900460ff1681565b60008054906101000a900473ffffffffffffffffffffffffffffffffffffffff1673ffffffffffffffffffffffffffffffffffffffff163373ffffffffffffffffffffffffffffffffffffffff1614610ba557600080fd5b60016002811115610bb957610bb8610f87565b5b600660008473ffffffffffffffffffffffffffffffffffffffff1673ffffffffffffffffffffffffffffffffffffffff16815260200190815260200160002060009054906101000a900460ff166002811115610c1857610c17610f87565b5b14610c2257600080fd5b600280811115610c3557610c34610f87565b5b600760008473ffffffffffffffffffffffffffffffffffffffff1673ffffffffffffffffffffffffffffffffffffffff16815260200190815260200160002060009054906101000a900460ff166002811115610c9457610c93610f87565b5b14610c9e57600080fd5b80600360008473ffffffffffffffffffffffffffffffffffffffff1673ffffffffffffffffffffffffffffffffffffffff1681526020019081526020016000205414610ce957600080fd5b3490508173ffffffffffffffffffffffffffffffffffffffff166108fc6064601984610d159190611163565b610d1f91906111ec565b9081150290604051600060405180830381858888f19350505050158015610d4a573d6000803e3d6000fd5b505050565b60046020528060005260406000206000915054906101000a900460ff1681565b600080fd5b6000819050919050565b610d8781610d74565b8114610d9257600080fd5b50565b600081359050610da481610d7e565b92915050565b600060208284031215610dc057610dbf610d6f565b5b6000610dce84828501610d95565b91505092915050565b600073ffffffffffffffffffffffffffffffffffffffff82169050919050565b6000610e0282610dd7565b9050919050565b610e1281610df7565b82525050565b6000602082019050610e2d6000830184610e09565b92915050565b610e3c81610d74565b82525050565b6000602082019050610e576000830184610e33565b92915050565b610e6681610df7565b8114610e7157600080fd5b50565b600081359050610e8381610e5d565b92915050565b60008060408385031215610ea057610e9f610d6f565b5b6000610eae85828601610d95565b9250506020610ebf85828601610e74565b9150509250929050565b600080600060608486031215610ee257610ee1610d6f565b5b6000610ef086828701610d95565b9350506020610f0186828701610e74565b9250506040610f1286828701610d95565b9150509250925092565b6000610f2782610dd7565b9050919050565b610f3781610f1c565b8114610f4257600080fd5b50565b600081359050610f5481610f2e565b92915050565b600060208284031215610f7057610f6f610d6f565b5b6000610f7e84828501610f45565b91505092915050565b7f4e487b7100000000000000000000000000000000000000000000000000000000600052602160045260246000fd5b60038110610fc757610fc6610f87565b5b50565b6000819050610fd882610fb6565b919050565b6000610fe882610fca565b9050919050565b610ff881610fdd565b82525050565b60006020820190506110136000830184610fef565b92915050565b6002811061102a57611029610f87565b5b50565b600081905061103b82611019565b919050565b600061104b8261102d565b9050919050565b61105b81611040565b82525050565b60006020820190506110766000830184611052565b92915050565b6000806040838503121561109357611092610d6f565b5b60006110a185828601610e74565b92505060206110b285828601610d95565b9150509250929050565b7f4e487b7100000000000000000000000000000000000000000000000000000000600052603260045260246000fd5b7f4e487b7100000000000000000000000000000000000000000000000000000000600052601160045260246000fd5b600061112582610d74565b91507fffffffffffffffffffffffffffffffffffffffffffffffffffffffffffffffff821415611158576111576110eb565b5b600182019050919050565b600061116e82610d74565b915061117983610d74565b9250817fffffffffffffffffffffffffffffffffffffffffffffffffffffffffffffffff04831182151516156111b2576111b16110eb565b5b828202905092915050565b7f4e487b7100000000000000000000000000000000000000000000000000000000600052601260045260246000fd5b60006111f782610d74565b915061120283610d74565b925082611212576112116111bd565b5b82820490509291505056fea2646970667358221220f33c6f8c30d3077ed7c2a27bdf455b191a8c9d59dac74b67bf3a028fc6818fd164736f6c634300080b0033",
  "immutableReferences": {},
  "source": "// SPDX-License-Ientifier: MIT\r\npragma solidity ^0.8.0;\r\n\r\ncontract orbit {\r\n    address payable dexAdmin;\r\n    uint public  recruitersFee;\r\n\r\n    constructor(address payable wagmi) {\r\n        dexAdmin = wagmi;\r\n    }\r\n\r\n    // dexFunction\r\n    function initFee(uint _fee) external {\r\n        require(msg.sender == dexAdmin);\r\n        recruitersFee = _fee;\r\n    }\r\n\r\n    address payable[] public recruiters;\r\n    mapping(address => uint) public recruitee;\r\n    mapping(address => Status) public newbie;\r\n    mapping(address => Status) public verificationSat; \r\n\r\n    function beRecruiter(uint gateFee, address payable recruitersId) external payable {\r\n        gateFee = msg.value;\r\n        require(gateFee == recruitersFee && recruitersId == msg.sender);\r\n        recruiters.push(recruitersId);\r\n        dexAdmin.transfer(gateFee);\r\n    }\r\n    enum Status{\r\n            verify,\r\n            unverify\r\n        }\r\n\r\n    function beRecruitee(uint grade, address payable recruiteeId, uint charge) external {\r\n        require(recruiteeId == msg.sender);       \r\n        if(grade < 10 && grade > 6) {\r\n            verificationSat[recruiteeId] = Status.verify;\r\n            if(verificationSat[recruiteeId]  == Status.verify) {\r\n                recruitee[recruiteeId] = charge;\r\n            }\r\n        }\r\n        else {\r\n            verificationSat[recruiteeId] = Status.unverify;\r\n            newbie[recruiteeId] = Status.unverify;\r\n            delete recruitee[recruiteeId];\r\n        }\r\n    }\r\n\r\n    enum listing {\r\n        non,\r\n        hire,\r\n        work\r\n    }\r\n\r\n    mapping (address => listing) public hired;\r\n    mapping (address => listing) public workers;\r\n\r\n    function hire(uint charges, address payable client) external payable {\r\n        for(uint i = 0; i < recruiters.length; i++) {\r\n            require(msg.sender == recruiters[i]);\r\n        } \r\n        require(verificationSat[client] == Status.verify);\r\n        require(recruitee[client] == charges);\r\n        charges = msg.value;\r\n        dexAdmin.transfer(charges);\r\n        hired[client] = listing.hire;\r\n        }\r\n\r\n        function work(address yourId) external {\r\n            require(hired[yourId] == listing.hire);\r\n            require (msg.sender == yourId);\r\n            workers[yourId] = listing.work;            \r\n        }\r\n\r\n        modifier onlyAdmin {\r\n          require(msg.sender == dexAdmin);\r\n            _;\r\n        }\r\n\r\n        function getPaid(address payable worker, uint salary) external payable onlyAdmin {\r\n            require (hired[worker] == listing.hire); \r\n            require(workers[worker] == listing.work);\r\n            require(recruitee[worker] == salary);\r\n            salary = msg.value;\r\n            worker.transfer(salary * 25 / 100);\r\n        }\r\n\r\n    \r\n}\r\n",
  "sourcePath": "C:\\Users\\lateefat .D. Ibrahim\\Desktop\\Blank\\SmartContractProject\\work2earn\\contracts\\orbit.sol",
  "compiler": {
    "name": "solc",
    "version": "0.8.11+commit.d7f03943.Emscripten.clang"
  },
  "schemaVersion": "3.4.4",
  "updatedAt": "2022-08-04T21:34:08.294Z",
  "networkType": "ethereum",
  "devdoc": {
    "kind": "dev",
    "methods": {},
    "version": 1
  },
  "userdoc": {
    "kind": "user",
    "methods": {},
    "version": 1
  }
}